{
    "contractName": "RockPaperScissors",
    "abi": [
        {
            "inputs": [
                {
                    "internalType": "address",
                    "name": "_token",
                    "type": "address"
                }
            ],
            "stateMutability": "nonpayable",
            "type": "constructor"
        },
        {
            "anonymous": false,
            "inputs": [
                {
                    "indexed": false,
                    "internalType": "uint256",
                    "name": "gameID",
                    "type": "uint256"
                },
                {
                    "indexed": false,
                    "internalType": "uint256",
                    "name": "deadline",
                    "type": "uint256"
                }
            ],
            "name": "GameCreated",
            "type": "event"
        },
        {
            "anonymous": false,
            "inputs": [
                {
                    "indexed": false,
                    "internalType": "uint256",
                    "name": "gameID",
                    "type": "uint256"
                },
                {
                    "indexed": false,
                    "internalType": "address",
                    "name": "winner",
                    "type": "address"
                }
            ],
            "name": "GameFinished",
            "type": "event"
        },
        {
            "inputs": [
                {
                    "internalType": "uint256",
                    "name": "_bet",
                    "type": "uint256"
                },
                {
                    "internalType": "uint256",
                    "name": "time",
                    "type": "uint256"
                }
            ],
            "name": "CreateGame",
            "outputs": [],
            "stateMutability": "nonpayable",
            "type": "function"
        },
        {
            "inputs": [
                {
                    "internalType": "uint256",
                    "name": "_gameID",
                    "type": "uint256"
                }
            ],
            "name": "FindWinner",
            "outputs": [],
            "stateMutability": "nonpayable",
            "type": "function"
        },
        {
            "inputs": [
                {
                    "internalType": "uint256",
                    "name": "_gameID",
                    "type": "uint256"
                }
            ],
            "name": "JoinGame",
            "outputs": [],
            "stateMutability": "nonpayable",
            "type": "function"
        },
        {
            "inputs": [
                {
                    "internalType": "uint256",
                    "name": "_gameID",
                    "type": "uint256"
                }
            ],
            "name": "PlayPaper",
            "outputs": [],
            "stateMutability": "nonpayable",
            "type": "function"
        },
        {
            "inputs": [
                {
                    "internalType": "uint256",
                    "name": "_gameID",
                    "type": "uint256"
                }
            ],
            "name": "PlayRock",
            "outputs": [],
            "stateMutability": "nonpayable",
            "type": "function"
        },
        {
            "inputs": [
                {
                    "internalType": "uint256",
                    "name": "_gameID",
                    "type": "uint256"
                }
            ],
            "name": "PlayScissors",
            "outputs": [],
            "stateMutability": "nonpayable",
            "type": "function"
        },
        {
            "inputs": [
                {
                    "internalType": "address",
                    "name": "",
                    "type": "address"
                }
            ],
            "name": "bet",
            "outputs": [
                {
                    "internalType": "uint256",
                    "name": "",
                    "type": "uint256"
                }
            ],
            "stateMutability": "view",
            "type": "function"
        },
        {
            "inputs": [
                {
                    "internalType": "address",
                    "name": "",
                    "type": "address"
                }
            ],
            "name": "moveMade",
            "outputs": [
                {
                    "internalType": "bool",
                    "name": "",
                    "type": "bool"
                }
            ],
            "stateMutability": "view",
            "type": "function"
        }
    ],
    "bytecode": "6080604052600060045534801561001557600080fd5b5060405161181338038061181383398101604081905261003491610067565b60008054336001600160a01b031991821617909155600380549091166001600160a01b0392909216919091179055610097565b60006020828403121561007957600080fd5b81516001600160a01b038116811461009057600080fd5b9392505050565b61176d806100a66000396000f3fe608060405234801561001057600080fd5b50600436106100885760003560e01c8063698860da1161005b578063698860da1461011b578063b61001871461012e578063efdb129e14610141578063f6d456a61461015457600080fd5b806302015d021461008d5780630474a68e146100c55780631f3fc1f9146100f357806355cc99e314610108575b600080fd5b6100b061009b3660046114f5565b60016020526000908152604090205460ff1681565b60405190151581526020015b60405180910390f35b6100e56100d33660046114f5565b60026020526000908152604090205481565b6040519081526020016100bc565b610106610101366004611525565b610167565b005b610106610116366004611525565b6102eb565b610106610129366004611525565b6103b2565b61010661013c366004611525565b610534565b61010661014f36600461153e565b610610565b610106610162366004611525565b6107e0565b604080518082018252600c81526b0283630bcb2b910189034b9960a51b6020808301919091526000848152600590915291909120546101af91906001600160a01b03166113fb565b604080518082018252600c81526b0283630bcb2b910191034b9960a51b6020808301919091526000848152600590915291909120600101546101fa91906001600160a01b03166113fb565b61022a6040518060400160405280600e81526020016d026b9b39739b2b73232b91034b9960951b815250336113fb565b6000818152600560205260409020546001600160a01b0316331415610289576040805180820182526005808252642830b832b960d91b602080840191825260008681529290529290209051610285926002909201919061145c565b5050565b6000818152600560205260409020600101546001600160a01b031633146102af57600080fd5b6040805180820182526005808252642830b832b960d91b602080840191825260008681529290529290209051610285926003909201919061145c565b6000818152600560205260409020546001600160a01b031633141561034b57604080518082018252600881526753636973736f727360c01b602080830191825260008581526005909152929092209051610285926002909201919061145c565b6000818152600560205260409020600101546001600160a01b0316331461037157600080fd5b604080518082018252600881526753636973736f727360c01b602080830191825260008581526005909152929092209051610285926003909201919061145c565b604080518082018252600c81526b0283630bcb2b910189034b9960a51b6020808301919091526000848152600590915291909120546103fa91906001600160a01b03166113fb565b604080518082018252600c81526b0283630bcb2b910191034b9960a51b60208083019190915260008481526005909152919091206001015461044591906001600160a01b03166113fb565b6104756040518060400160405280600e81526020016d026b9b39739b2b73232b91034b9960951b815250336113fb565b6000818152600560205260409020546001600160a01b03163314156104d1576040805180820182526004815263526f636b60e01b602080830191825260008581526005909152929092209051610285926002909201919061145c565b6000818152600560205260409020600101546001600160a01b031633146104f757600080fd5b6040805180820182526004815263526f636b60e01b602080830191825260008581526005909152929092209051610285926003909201919061145c565b6000818152600560205260409020600101546001600160a01b03161561055957600080fd5b6003546000828152600560205260409081902060049081015491516323b872dd60e01b8152339181019190915230602482015260448101919091526001600160a01b03909116906323b872dd906064016020604051808303816000875af11580156105c8573d6000803e3d6000fd5b505050506040513d601f19601f820116820180604052508101906105ec9190611560565b50600090815260056020526040902060010180546001600160a01b03191633179055565b3361061d5761061d611582565b61065c6040518060400160405280601b81526020017f4d73672e73656e646572206973202843726561746547616d6529200000000000815250336113fb565b6107088111156106b25760405162461bcd60e51b815260206004820181905260248201527f47616d652073686f756c642066696e69736820696e203330206d696e75746573604482015260640160405180910390fd5b60048054600091826106c3836115ae565b90915550600081815260056020819052604090912080546001600160a01b03199081163317825560018201805490911690556004810186905590810182905590915061070f83426115c9565b60068201556003546040516323b872dd60e01b8152336004820152306024820152604481018690526001600160a01b03909116906323b872dd906064016020604051808303816000875af115801561076b573d6000803e3d6000fd5b505050506040513d601f19601f8201168201806040525081019061078f9190611560565b507fa26856d25e558c79e1632806bc6824075cf59885a115825f2aab62385a3f7142816005015482600601546040516107d2929190918252602082015260400190565b60405180910390a150505050565b6000818152600560205260408120600601544211156107fe57600080fd5b6040805160008082526020808301808552835190208683526005909152908390209092610831926002909201910161161c565b6040516020818303038152906040528051906020012014158061089b57506040805160008082526020808301808552835190208683526005909152908390209092610882926002909201910161161c565b6040516020818303038152906040528051906020012014155b156109c257600354600083815260056020526040908190208054600491820154925163a9059cbb60e01b81526001600160a01b039485169463a9059cbb946108e994919093169291016116b8565b6020604051808303816000875af1158015610908573d6000803e3d6000fd5b505050506040513d601f19601f8201168201806040525081019061092c9190611560565b50600354600083815260056020526040908190206001810154600491820154925163a9059cbb60e01b81526001600160a01b039485169463a9059cbb9461097994919093169291016116b8565b6020604051808303816000875af1158015610998573d6000803e3d6000fd5b505050506040513d601f19601f820116820180604052508101906109bc9190611560565b506113b6565b60405163526f636b60e01b602082015260240160408051601f198184030181528282528051602091820120600086815260058352929092209192610a0a92600201910161161c565b60405160208183030381529060405280519060200120148015610a8c57506040516753636973736f727360c01b602082015260280160408051601f198184030181528282528051602091820120600086815260058352929092209192610a7492600301910161161c565b60405160208183030381529060405280519060200120145b15610b3857600354600083815260056020526040908190208054600491820154925163a9059cbb60e01b81526001600160a01b039485169463a9059cbb94610ada94919093169291016116b8565b6020604051808303816000875af1158015610af9573d6000803e3d6000fd5b505050506040513d601f19601f82011682018060405250810190610b1d9190611560565b50506000818152600560205260409020546001600160a01b03165b60405163526f636b60e01b602082015260240160408051601f198184030181528282528051602091820120600086815260058352929092209192610b8092600201910161161c565b60405160208183030381529060405280519060200120148015610bff5750604051642830b832b960d91b602082015260250160408051601f198184030181528282528051602091820120600086815260058352929092209192610be792600301910161161c565b60405160208183030381529060405280519060200120145b15610cb157600354600083815260056020526040908190206001810154600491820154925163a9059cbb60e01b81526001600160a01b039485169463a9059cbb94610c5094919093169291016116b8565b6020604051808303816000875af1158015610c6f573d6000803e3d6000fd5b505050506040513d601f19601f82011682018060405250810190610c939190611560565b50506000818152600560205260409020600101546001600160a01b03165b604051642830b832b960d91b602082015260250160408051601f198184030181528282528051602091820120600086815260058352929092209192610cfa92600201910161161c565b60405160208183030381529060405280519060200120148015610d78575060405163526f636b60e01b602082015260240160408051601f198184030181528282528051602091820120600086815260058352929092209192610d6092600301910161161c565b60405160208183030381529060405280519060200120145b15610e2457600354600083815260056020526040908190208054600491820154925163a9059cbb60e01b81526001600160a01b039485169463a9059cbb94610dc694919093169291016116b8565b6020604051808303816000875af1158015610de5573d6000803e3d6000fd5b505050506040513d601f19601f82011682018060405250810190610e099190611560565b50506000818152600560205260409020546001600160a01b03165b604051642830b832b960d91b602082015260250160408051601f198184030181528282528051602091820120600086815260058352929092209192610e6d92600201910161161c565b60405160208183030381529060405280519060200120148015610eef57506040516753636973736f727360c01b602082015260280160408051601f198184030181528282528051602091820120600086815260058352929092209192610ed792600301910161161c565b60405160208183030381529060405280519060200120145b15610fa157600354600083815260056020526040908190206001810154600491820154925163a9059cbb60e01b81526001600160a01b039485169463a9059cbb94610f4094919093169291016116b8565b6020604051808303816000875af1158015610f5f573d6000803e3d6000fd5b505050506040513d601f19601f82011682018060405250810190610f839190611560565b50506000818152600560205260409020600101546001600160a01b03165b6040516753636973736f727360c01b602082015260280160408051601f198184030181528282528051602091820120600086815260058352929092209192610fed92600201910161161c565b6040516020818303038152906040528051906020012014801561106b575060405163526f636b60e01b602082015260240160408051601f19818403018152828252805160209182012060008681526005835292909220919261105392600301910161161c565b60405160208183030381529060405280519060200120145b1561111d57600354600083815260056020526040908190206001810154600491820154925163a9059cbb60e01b81526001600160a01b039485169463a9059cbb946110bc94919093169291016116b8565b6020604051808303816000875af11580156110db573d6000803e3d6000fd5b505050506040513d601f19601f820116820180604052508101906110ff9190611560565b50506000818152600560205260409020600101546001600160a01b03165b6040516753636973736f727360c01b602082015260280160408051601f19818403018152828252805160209182012060008681526005835292909220919261116992600201910161161c565b604051602081830303815290604052805190602001201480156111e85750604051642830b832b960d91b602082015260250160408051601f1981840301815282825280516020918201206000868152600583529290922091926111d092600301910161161c565b60405160208183030381529060405280519060200120145b1561129857600354600083815260056020526040908190208054600491820154925163a9059cbb60e01b81526001600160a01b039485169463a9059cbb9461123694919093169291016116b8565b6020604051808303816000875af1158015611255573d6000803e3d6000fd5b505050506040513d601f19601f820116820180604052508101906112799190611560565b50506000818152600560205260409020546001600160a01b03166113b6565b600354600083815260056020526040908190208054600491820154925163a9059cbb60e01b81526001600160a01b039485169463a9059cbb946112e194919093169291016116b8565b6020604051808303816000875af1158015611300573d6000803e3d6000fd5b505050506040513d601f19601f820116820180604052508101906113249190611560565b50600354600083815260056020526040908190206001810154600491820154925163a9059cbb60e01b81526001600160a01b039485169463a9059cbb9461137194919093169291016116b8565b6020604051808303816000875af1158015611390573d6000803e3d6000fd5b505050506040513d601f19601f820116820180604052508101906113b49190611560565b505b604080518381526001600160a01b03831660208201527fb7f35e624e036288272fbf3342c09219261ff29fdddd826989b289134e9ae535910160405180910390a15050565b61028582826040516024016114119291906116d1565b60408051601f198184030181529190526020810180516001600160e01b031663319af33360e01b17905280516a636f6e736f6c652e6c6f67602083016000808483855afa5050505050565b828054611468906115e1565b90600052602060002090601f01602090048101928261148a57600085556114d0565b82601f106114a357805160ff19168380011785556114d0565b828001600101855582156114d0579182015b828111156114d05782518255916020019190600101906114b5565b506114dc9291506114e0565b5090565b5b808211156114dc57600081556001016114e1565b60006020828403121561150757600080fd5b81356001600160a01b038116811461151e57600080fd5b9392505050565b60006020828403121561153757600080fd5b5035919050565b6000806040838503121561155157600080fd5b50508035926020909101359150565b60006020828403121561157257600080fd5b8151801515811461151e57600080fd5b634e487b7160e01b600052600160045260246000fd5b634e487b7160e01b600052601160045260246000fd5b60006000198214156115c2576115c2611598565b5060010190565b600082198211156115dc576115dc611598565b500190565b600181811c908216806115f557607f821691505b6020821081141561161657634e487b7160e01b600052602260045260246000fd5b50919050565b600080835481600182811c91508083168061163857607f831692505b602080841082141561165857634e487b7160e01b86526022600452602486fd5b81801561166c576001811461167d576116aa565b60ff198616895284890196506116aa565b60008a81526020902060005b868110156116a25781548b820152908501908301611689565b505084890196505b509498975050505050505050565b6001600160a01b03929092168252602082015260400190565b604081526000835180604084015260005b818110156116ff57602081870181015160608684010152016116e2565b81811115611711576000606083860101525b506001600160a01b0393909316602083015250601f91909101601f19160160600191905056fea2646970667358221220b30fc5dd9348c5c9231971028e824d8031f8ee2aff608af402f7efdabc512d9864736f6c634300080a0033",
    "sourcePath": "d:/GitHub/RockPaperScissors-test-project/Contracts/PaperRockScrissors.sol",
    "compiler": {
        "name": "solc",
        "version": "0.8.10+commit.fc410830"
    },
    "functionHashes": {
        "CreateGame(uint256,uint256)": "efdb129e",
        "FindWinner(uint256)": "f6d456a6",
        "JoinGame(uint256)": "b6100187",
        "PlayPaper(uint256)": "1f3fc1f9",
        "PlayRock(uint256)": "698860da",
        "PlayScissors(uint256)": "55cc99e3",
        "bet(address)": "0474a68e",
        "moveMade(address)": "02015d02"
    },
    "gasEstimates": {
        "creation": {
            "codeDepositCost": "1199400",
            "executionCost": "infinite",
            "totalCost": "infinite"
        },
        "external": {
            "CreateGame(uint256,uint256)": "infinite",
            "FindWinner(uint256)": "infinite",
            "JoinGame(uint256)": "infinite",
            "PlayPaper(uint256)": "infinite",
            "PlayRock(uint256)": "infinite",
            "PlayScissors(uint256)": "infinite",
            "bet(address)": "2507",
            "moveMade(address)": "2486"
        }
    }
}